:06000000020006020443A9
:08005F00750800750900E4F5C5
:040067000AF50B7516
:03006B000C5975B8
:03006E000D067507
:040071000E80750F79
:030075005E7510A5
:05007800067511807502
:03007D0012637596
:03008000130675EF
:060083001480E4F515F500
:0500890016E4F517F577
:05008E00187519017551
:020093001A0051
:03009500020098CE
:0500980012045280FE7D
:02009D00AA8235
:07009F008A031AEB70FA223C
:0400A600AA82AB83FC
:0900AA008A048B051ABAFF011B40
:0E00B300EC4D6010758291C002C00312009DDA
:0600C100D003D00280E331
:0100C7002216
:0D00C800AA82900300EAF09000010200A659
:0D00D500AA82900302EAF09000010200A64A
:0E00E2007580FF7590FF75A0FF75B0FFC2AF6F
:0E00F000D288D2A8D2AF9000281200A6758246
:0E00FE00381200C87582081200C875820112FF
:0C010C0000C87582061200C875820C0243
:0201180000C81D
:0A011A00C01B85811B0581058105CE
:0C01240081AA82A81B181818748026FB02
:0D013000EA030354C0FA2BF5821200C8E563
:0A013D001B24FAF8A91B09E6F708D5
:0C01470009E6F70809E6F7A81B08868205
:0C0153000886830886F0120588FD7B00FA
:05015F00BD0002802537
:0C0164008D82C0031200D5D0030BA81B35
:0E01700008EB26FFE40836FE0886028F828E1A
:0B017E00838AF0120588FF8F0580D6F1
:06018900851B81D01B2242
:0B018F00E590FA20E705751A07801EB6
:09019A00EA20E605751A0680153D
:0901A300EA20E505751A05800C3F
:0901AC00EA20E405751A04800341
:0301B500751A00B8
:0401B800851A822200
:0801BC00AA82AB837C087D00E0
:0C01C400C3ED95095029C004C005740A61
:0E01D000C0E0E4C0E08A828B83120557AE8245
:0E01DE00AF8315811581D005D0048E028F03EA
:0701EC00ECC313FC0D80D1F0
:0E01F3007D007E01C004C005C006740AC0E095
:0E020100E4C0E08A828B831205E1AA82AB83FF
:0C020F0015811581D006D005D004EA242A
:0A021B002AF582EB3406F583E49324
:0E022500FA8D828E83F07A007B02ECF4FC8A64
:0A023300828B83F0AA090509BA03C3
:01023D0000C0
:05023E004003750900FA
:010243002298
:040244007A007B00C1
:0C024800E519601E8A048B050ABA00014B
:010254000B9E
:0E025500C374E79C74838DF063F08095F050C5
:07026300E47A007B0080DE5D
:0E026A007403C0E0E4C0E08A828B831205A416
:0E027800AA82AB83158115818A828B83A32213
:060286007A007B007C0100
:0A028C00EC6065E51AB4071CC00C15
:0A029600C00DC00E740CC0E07582AC
:0E02A0000112011AE58124FCF5817A017B0030
:0202AE007C00D2
:0802B000E51AB4061CC00FC0E2
:0A02B80010C011740CC0E075820143
:0E02C20012011AE58124FCF5817A027B007C92
:0102D000002D
:0802D100E51AB405B6C012C025
:0A02D90013C014740CC0E07582011C
:0E02E30012011AE58124FCF5817A037B007C70
:0302F100008098F2
:0502F4008A828B8322C9
:0502F900AA0AAB0B0591
:0602FE000AE4B50A020546
:010304000BED
:0C030500C3740F9A74279B5005E4F50A9E
:02031100F50BEA
:0103130022C7
:0A031400C01B85811BAA82AB83E5A4
:0C031E001B24FCF8E6C39AFA08E69BFBDF
:08032A00BAFE05BBFF02805F73
:09033200BAFF06BBFF030203CE73
:08033B00BA0005BB00028013AB
:08034300BA0105BB000280466F
:08034B00BA0205BB0002807B31
:0303530002040899
:0A0356007434C0E07406C0E0748047
:0E036000C0E07407C0E075820012011AE5814A
:0A036E0024FCF5817439C0E0740628
:0E037800C0E07480C0E07407C0E0758201121E
:0B038600011AE58124FCF5810204400F
:0A039100743EC0E07406C0E0748002
:0E039B00C0E07407C0E075820012011AE5810F
:0A03A90024FCF5817443C0E07406E3
:0E03B300C0E07480C0E07407C0E075820112E3
:0D03C100011AE58124FCF5811202F9807219
:0A03CE00743EC0E07406C0E07480C5
:0E03D800C0E07407C0E075820012011AE581D2
:0A03E60024FCF5817448C0E07406A1
:0E03F000C0E07480C0E07407C0E075820112A6
:0A03FE00011AE58124FCF581803826
:0A040800744DC0E07406C0E074807B
:0E041200C0E07407C0E075820012011AE58197
:0A04200024FCF581744DC0E0740661
:0E042A00C0E07480C0E07407C0E0758201126B
:08043800011AE58124FCF581A5
:03044000D01B22AC
:0C044300C082C083751900900000D083B7
:03044F00D0823226
:070452001200E2E4F50AF5D7
:060459000B7452C0E074B8
:0C045F0006C0E07480C0E0E4C0E07582DC
:0C046B000012011AE58124FCF581745692
:0C047700C0E07406C0E07480C0E0740DAA
:0E048300C0E075820012011AE58124FCF581AB
:0B04910012018FE582700E12018F1225
:07049C0002448582158583EF
:0304A3001680EBD5
:0804A6001202448582158583D2
:0904AE0016120286AA82AB83E556
:0804B70015B40104E516600212
:0204BF00801E9D
:0904C100C002C003C00CC00DC054
:0C04CA000E7401C0E075820112011AE5F9
:0904D6008124FCF581D003D00261
:0904DF00E515B40204E516600203
:0204E800801E74
:0904EA00C002C003C00FC010C025
:0C04F300117401C0E075820112011AE5CD
:0904FF008124FCF581D003D00238
:09050800E515B40304E5166002D8
:02051100801E4A
:09051300C002C003C012C013C0F5
:0C051C00147401C0E075820112011AE5A0
:090528008124FCF581D003D0020E
:0A053100C002C00385158285168301
:0B053B0012031415811581751901854C
:060546000A82850B8312FE
:09054C0001BC75826412009D02DD
:0205550004910F
:0A062A00C0F9A4B0999283D880981B
:050634005745202000E5
:0506390044524157008E
:05063E00594F5520009A
:0506430057494E2000A4
:050648004C4F5345007A
:05064D00574149540073
:04065200434F4D00C5
:030656004D45000F
:05065900524F434B006D
:05065E00504150200096
:05066300534349200093
:0A055700E58124FEF8E6F918E6F845
:050561007A10E4FBFC30
:0E056600E58225E0F582E58333F583EB33FB78
:0E057400EC33FCEB98F5F0EC994006FCABF094
:03058200438201B0
:03058500DADF2298
:06003500E478FFF6D8FD9F
:080013007900E94400601B7A4A
:05001B0000900668786A
:030020000075A0C8
:0A00230000E493F2A308B800020500
:08002D00A0D9F4DAF275A0FF7E
:08003B007800E84400600A7936
:030043000075A0A5
:0600460000E4F309D8FC00
:08004C007800E84400600C7923
:0B00540000900000E4F0A3D8FCD9FAF3
:0300060075811BE6
:0A000900120626E58260030200984B
:0E05880020F71430F6148883A88220F507E6C9
:06059600A883758300221A
:03059C00E280F703
:03059F00E49322C0
:0205A200E02255
:0E05A400C2D5E58330E70DD2D5E4C39582F5CC
:0605B20082E49583F5834D
:0E05B800E58124FEF8E630E70918E4C396F664
:0405C600E40896F6B9
:0E05CA0086011886001205EB30D50BE4C395B0
:0805D80082F582E49583F583AE
:0105E00022F8
:0A05E100E58124FEF886011886006B
:0605EB00E84960367A01C8
:0E05F100E825E0F8E933400EF9E58298E5834D
:0605FF009940030A80ECA4
:02060500C3E947
:0506070013F9E813F8EF
:0E060C00C3E58298F5F0E583994005F58385F6
:02061A00F0826C
:09061C00C3E913F9E813F8DAE769
:0106250022B2
:0406260075820022B7
:00000001FF
